:100000000C94D7000C94CA0D0C94A7080C948C087F
:100010000C94F4000C9410090C94F4000C94C20895
:100020000C94F4000C94F4000C94F4000C94F40080
:100030000C94F4000C94F4000C94F4000C94F40070
:100040000C94F4000C94F4000C94F4000C94F40060
:100050000C94F4006E616E00696E6600040309047E
:10006000220365007600670065006E0079003200AB
:10007000310037002E006F00720067002E007500FF
:1000800061000E03480054005F0032003100370069
:1000900012011001FF000008C016DC05000101027A
:1000A000000109021200010100806409040000003F
:1000B0000000000000407A10F35A00A0724E1809A8
:1000C0000010A5D4E80000E87648170000E40B54BF
:1000D000020000CA9A3B000000E1F505000080968E
:1000E0009800000040420F000000A08601000000C0
:1000F000102700000000E80300000000640000007A
:1001000000000A00000000000100000000002C7642
:10011000D888DC674F0823DFC1DFAE59E1B1B7965D
:10012000E5E3E453C63AE651997696E8E6C28426BA
:10013000EB898C9B62ED407C6FFCEFBC9C9F40F296
:10014000BAA56FA5F490055A2AF75C936B6CF96712
:100150006DC11BFCE0E40D47FEF520E6B500D0EDD7
:10016000902E0300943577050080841E080000203F
:100170004E0A000000C80C333333330F986E1283DD
:100180001141EF8D2114893BE65516CFFEE6DB18B1
:10019000D1844B381BF77C1D901DA4BBE424203276
:1001A00084725E228100C9F124ECA1E53D2711246F
:1001B0001FBECFE5D8E0DEBFCDBF12E0A0E6B0E0C5
:1001C000E4EAFEE202C005900D92A431B107D9F72E
:1001D00012E0A4E1B2E001C01D92AE3BB107E1F72D
:1001E0000E946A090C9450170C940000A1E1B0E041
:1001F000ECEFF0E00C9405173C017F876E876A01F5
:10020000FC0117821682838181FD03C06FEF7FEFAF
:1002100071C39E012F5F3F4F398B288BF3012381E0
:10022000EE85FF8523FD859123FF8191FF87EE8772
:10023000882309F45CC3853251F4EE85FF8523FDE4
:10024000859123FF8191FF87EE87853229F490E025
:10025000B3010E944416E2CF982F10E0882499241D
:100260001032B0F49B3269F09C3228F4903251F095
:10027000933271F40BC09D3239F0903349F4116020
:1002800028C01260146025C0186023C0106121C00E
:1002900017FD2AC0892F80538A3078F416FF06C0D4
:1002A000FAE09F9E902C1124980E13C03AE0839E92
:1002B000802C1124880E10620CC09E3221F416FD91
:1002C00016C3106406C09C3611F4106802C098363C
:1002D00059F4EE85FF8523FD959123FF9191FF87CA
:1002E000EE87992309F0BCCF892F8554833020F401
:1002F000812F8061905E07C0892F8556833008F07A
:10030000A1C1812F8F7E86FD02C076E0972E6FE31C
:10031000F62EF822953619F4F0E4FF2A07C0963637
:1003200019F420E8F22A02C091109A94F7FE0BC04B
:100330003BE3391520F427E05CE3B52E0EC0B92C61
:10034000B39427E00AC047E0491528F427E0BB240E
:1003500047E0942E02C0292DBB24C60104969D8738
:100360008C87F6016081718182819381AE014F5F3C
:100370005F4F0B2D0E9444156C010981202E332400
:1003800000FF04C003FD02C01DE209C0F1FE02C06F
:100390001BE205C0F2FC02C010E001C010E2C10186
:1003A0008C709070892BB9F1112311F483E001C096
:1003B00084E0881510F088240AC0881AF3FC07C06E
:1003C00080E290E0B3010E9444168A94C9F7112399
:1003D00029F0812F90E0B3010E94441623FE03C050
:1003E00004E510E00EC008E510E00BC0E114F104D4
:1003F00009F0805290E0B3010E9444160F5F1F4F36
:1004000005C0EF2CFF24F0E1EF22FF24F8018491D6
:10041000882361F714C1F7FE12C0BC0C24FE04C08F
:100420008A81813309F4BA941B141CF0BB24B39461
:100430002DC0F8E0FB1550F538E0B32E27C0F6FCD0
:1004400025C0892D90E08C159D054CF02CEFC2162F
:100450002FEFD20624F030E8F32A01C09A949920B5
:1004600049F0E2E0F0E0EC0FFD1FE90DF11D8081A5
:100470008033A1F3F7FE0AC0B92CB394892D90E024
:10048000C816D90614F0992401C09C18F7FC03C0C3
:1004900025E030E009C01C141D041CF021E030E010
:1004A00003C096012F5F3F4F112311F02F5F3F4F85
:1004B000992029F0892D90E00196280F391F882D69
:1004C00090E02817390714F0882401C0821A4F2CB5
:1004D0005524C20189709070892B39F008C080E2E0
:1004E00090E0B3010E9444168A948820C1F711233A
:1004F00029F0812F90E0B3010E94441643FE07C00B
:1005000008C080E390E0B3010E9444168A948820DA
:10051000C1F7F7FE46C08601D7FE02C000E010E03A
:1005200076010894E11CF11CE01AF10A41E050E068
:100530004C0F5D1FE40EF51E26014B185108892D46
:1005400090E0AA24BB24A81AB90A5FEF0F3F150751
:1005500029F48EE290E0B3010E944416C016D10641
:1005600034F0401651061CF4F701808101C080E38D
:10057000015010400894E11CF11C0A151B052CF0D9
:1005800090E0B3010E944416E0CF0C151D0539F42C
:100590009A81963318F4953311F424FE81E390E0A8
:1005A0004BC08A81813309F00F7E90E0B3010E9435
:1005B00044169920A1F08EE290E0B3010E94441607
:1005C00012E0E1E0F0E0EC0FFD1FE10FF11D1F5F15
:1005D000808190E0B3010E9444169A9491F744FC04
:1005E00003C085E690E002C085E490E0B3010E947C
:1005F0004416D7FC05C0C114D10441F404FF06C061
:10060000D094C194D108D3948DE201C08BE290E0E4
:10061000B3010E94441680E305C08F5F26EF3FEFD1
:10062000C20ED31E3AE0C316D104BCF790E0B3016A
:100630000E944416C601C096B3010E944416CC84A1
:10064000DD8452C1933631F0933799F0933509F038
:1006500059C023C0F601808189835E010894A11CE2
:10066000B11C22E030E0C20ED31E21E0E22EF12CBC
:1006700012C0F601A080B18016FD03C06FEF7FEFBE
:1006800002C0692D70E022E030E0C20ED31EC50129
:100690000E9439167C011F7713C0F601A080B1803B
:1006A00016FD03C06FEF7FEF02C0692D70E022E0FE
:1006B00030E0C20ED31EC5010E941C167C011068DA
:1006C00013FF07C01BC080E290E0B3010E944416F4
:1006D0008A94882D90E0E816F906A8F30FC0F5017A
:1006E00017FD859117FF81915F0190E0B3010E9492
:1006F000441681108A940894E108F108E114F10489
:1007000071F7F2C0943611F0993689F517FF08C0D9
:10071000F601208131814281538184E090E00AC05A
:10072000F601808191819C01442737FD4095542F2B
:1007300082E090E0C80ED91E9FE6F92EF12257FF05
:1007400009C050954095309521953F4F4F4F5F4FD1
:1007500090E8F92ACA01B901AE014F5F5F4F2AE064
:1007600030E00E949416E82EE889EE1A41C09537D1
:1007700021F41F7E2AE030E01CC0197F9F3661F013
:10078000903720F4983509F0B2C00FC0903739F097
:10079000983709F0ACC004C028E030E00AC010610E
:1007A00014FD146020E130E004C014FD166020E167
:1007B00032E017FF08C0F601608171818281938168
:1007C00044E050E008C0F60180819181BC0180E0E6
:1007D00090E042E050E0C40ED51EAE014F5F5F4F87
:1007E0000E949416E82E5889E51A8FE7F82EF12218
:1007F000F6FE0BC08EEFF822E91438F4F4FE07C0C1
:10080000F2FC05C09FEEF92202C01E2D01C0192D79
:10081000F4FE0DC0FE01EE0DF11D8081803319F450
:10082000E9EEFE2208C01F5FF2FE05C003C08F2D57
:10083000867809F01F5F0F2DF3FC14C0F0FE0FC087
:10084000181510F09E2C0BC09E2C980C911A182D88
:1008500006C080E290E0B3010E9444161F5F1815A5
:10086000C0F304C0181510F4811A01C0882404FFD5
:100870000FC080E390E0B3010E94441602FF1DC048
:1008800001FD03C088E790E00EC088E590E00BC052
:10089000802F867891F001FF02C08BE201C080E2D8
:1008A000F7FC8DE290E0B3010E94441606C080E39D
:1008B00090E0B3010E9444169A94E914C0F3EA94BC
:1008C000E1E0F0E0EC0FFD1FEE0DF11D808190E006
:1008D000B3010E944416EE2091F706C080E290E03A
:1008E000B3010E9444168A948820C1F797CCF30183
:1008F00066817781CB016196E2E10C942117DC01DE
:1009000061157105F1F020E040E050E098E1FD0153
:10091000E40FF51FE08138E004C02695315051F016
:10092000E6958E2F822780FFF8CF2927269520680D
:100930003150B1F74F5F5F4F6417750741F7822F52
:10094000089520E0FCCFDC01CB0181159105A105C4
:10095000B10529F081509040A040B040D9F70895EA
:10096000FF920F931F93CF93DF93F82EFB01DA01D1
:10097000E9018081482F50E0918180E0482B592B7C
:1009800080E1F81641F157FD37C01C9288E2F81655
:1009900099F0CA01929582958F7089279F70892757
:1009A0008883842F8F70F801808380E0DF91CF915E
:1009B0001F910F91FF9008958481682F70E0CB0103
:1009C000807690708036910521F366FD1BC065FD31
:1009D0001BC0487FDECFCA018E7F880F991F880F0A
:1009E000991F880F991F26814CE050E0421B510946
:1009F000480F591F57FFC9CF81E08C9350954195FF
:100A00005F4FC4CF4E7FC5CF4C7FC3CFEF92FF92D5
:100A10000F931F93DF93CF93CDB7DEB728970FB611
:100A2000F894DEBF0FBECDBFE82EF62E8E010F5F0D
:100A30001F4FD801E0E6F0E088E001900D92815070
:100A4000E1F7242F30E081E792E0BC01269FC0014E
:100A5000279F900D369F900D112468EE73E00E9441
:100A6000F216CB012AE0F29EB0011124680F791F23
:100A7000EE2059F4F8019E01275F3F4F80818417D3
:100A800091F03196E217F307C9F7CB0128960FB61C
:100A9000F894DEBF0FBECDBFCF91DF911F910F91B4
:100AA000FF90EF9008956F5F7F4FEFCF5F926F924F
:100AB0007F928F929F92AF92BF92CF92DF92EF92EE
:100AC000FF920F931F93DF93CF93CDB7DEB7299794
:100AD0000FB6F894DEBF0FBECDBF582E5B014A01A2
:100AE00039018EEB60E070E00E94ED0B6E0108941E
:100AF000C11CD11C86014AE0E42EF12CEC0EFD1E37
:100B00000E948F0BF80181938F01EE15FF05C1F74D
:100B1000C60169E070E00E947F048823B9F083E099
:100B200029960FB6F894DEBF0FBECDBFCF91DF91EF
:100B30001F910F91FF90EF90DF90CF90BF90AF90FB
:100B40009F908F907F906F905F900895852DB60154
:100B5000A501940183010E94B00480E0E1CF4F928F
:100B60005F926F927F928F929F92AF92BF92CF923D
:100B7000DF92EF92FF920F931F93DF93CF93CDB746
:100B8000DEB729970FB6F894DEBF0FBECDBF5C016C
:100B90004B013A0129010E943C0B8EEBB5010E94EA
:100BA000ED0B6E010894C11CD11C86015AE0E52EA4
:100BB000F12CEC0EFD1E0E948F0BF80181938F012A
:100BC000EE15FF05C1F7C60169E070E00E947F04E1
:100BD0008823C1F083E029960FB6F894DEBF0FBEDC
:100BE000CDBFCF91DF911F910F91FF90EF90DF90DC
:100BF000CF90BF90AF909F908F907F906F905F90BD
:100C00004F900895F5018081B601A40193018201FE
:100C10000E94B00480E0DFCF1F93CF93DF93182FA3
:100C2000EB010E943C0B0E94330B882329F482E0E5
:100C3000DF91CF911F91089584E4BE010E94ED0BD6
:100C4000113011F00E94360B80E0DF91CF911F919F
:100C500008950F931F93CF93DF938C01EB01FC0159
:100C60009081892FBE010E94930B982FF8018083F9
:100C700081508D3F28F48881883211F0803189F7C6
:100C8000DF91CF911F910F91089587B1806687B949
:100C900086B1866886B908959C0187B1829586954C
:100CA000877087B987B18295880F807E87B9233096
:100CB0003105F9F024303105ACF02530310521F053
:100CC00025303105D4F43A9A87B1856087B987B168
:100CD000866087B987B1806687B986B1866886B92C
:100CE000369A08952130310561F02230310591F7AF
:100CF000399A87B1836087B9E6CF2630310551F73D
:100D0000E6CF389AF5CFAF92BF92CF92DF92EF92B3
:100D1000FF920F931F930E944C0665B170E08827E5
:100D200077FD8095982F0E94A41221E73DE342EAC7
:100D30005CE30E949E107B018C01609327027093FC
:100D400028028093290290932A0220E030EC4FE899
:100D500055E40E949E105B016C0161E77DE382EA2D
:100D600090E4A80197010E9440109B01AC01C601CC
:100D7000B5010E9498117B018C0160931F02709352
:100D80002002809321029093220220E034E244E783
:100D900059E40E94441288230CF46FC0C801B701C3
:100DA00020EC3CE241E059EC0E94981120E030E058
:100DB00040EF51E40E94711060932302709324026B
:100DC0008093250290932602C801B70120E030E508
:100DD00043EC57E40E94741218165CF0C801B70186
:100DE00020E030E44CE156E40E94441288230CF0E9
:100DF00071C0C801B70120E030E44CE156E40E9424
:100E00007412181604F1C801B70120E030E048E47C
:100E100053E40E9444128823B4F0C801B70120E0D3
:100E200030E045EF53EC0E94981120E030E04EEBAB
:100E300052E40E9471106093230270932402809305
:100E400025029093260260912302709124028091E2
:100E500025029091260220E030E040E251E40E9419
:100E60009E100E940213CB011F910F91FF90EF90F3
:100E7000DF90CF90BF90AF900895C801B70120E0F8
:100E800030E543EC57E40E94441288230CF49CCFD5
:100E9000C801B70120E034E244E759E40E9474122B
:100EA00018160CF491CFC801B70120E030E543E4F7
:100EB00057EC0E94981120E030E040E452E40E9498
:100EC0007110609323027093240280932502909303
:100ED00026027ACFC801B70120E030E540E555ECA5
:100EE0000E94981120E030E046E952E40E9471101F
:100EF000609323027093240280932502909326022C
:100F0000A2CF662349F1A99AAA98A49AA59AA69A6B
:100F1000A79AAF98AE98AD98AC9887FD1FC086FD94
:100F2000AE9A85FDAD9A84FDAC9AAB9A00C0AB98A1
:100F3000AF98AE98AD98AC9883FDAF9A82FDAE9A0B
:100F400081FDAD9A80FDAC9AAB9A00C0AB98AC9A8B
:100F5000AD9AAE9AAF9A0895A998D6CFAF9ADFCF3F
:100F6000882309F1A99AAA9AA498A598A698A7985F
:100F7000AB9A00C09C9B15C080E19D9980629E99B0
:100F800080649F9912C0AB9800C0AB9A00C09C9936
:100F900081609D9982609E9984609F998860AB98DA
:100FA000089580E0EACFA998DECF8068ECCF80E09A
:100FB0000E94B00787FDFBCF86E090E00197F1F734
:100FC00080E00E94B00708951F93182F0E94D70752
:100FD000812F60E00E9481071F9108951F93182FB1
:100FE0000E94D707812F61E00E9481071F91089519
:100FF000662321F080540E94E407089580580E94DF
:10100000E40708950E94D70790E0089581E00E94C8
:10101000E407089582E00E94E40708951F93182FC3
:101020000E94D7071A3061F08031C1F0803589F015
:101030000E94D707812F61E00E9481071F910895C8
:10104000803428F080E80E94E4071F91089580EC26
:10105000FACF80E860E00E948107EACF80EC60E090
:101060000E948107E5CFCF93DF93FC018081882325
:1010700039F0EF010E940E08898121968823D1F76B
:10108000DF91CF910895CF93DF93FC018491882362
:1010900049F0EF0121960E940E08FE0121968491ED
:1010A0008823C9F7DF91CF9108951F93182FA19A34
:1010B000A29AA39AA49AA59AA69AA79A80E89BEBCB
:1010C0000197F1F7AD9AAC9AAB9A00C0AB9880E863
:1010D0009AE30197F1F7AB9A00C0AB9880EC90E0EF
:1010E000FC013197F1F7AB9A00C0AB98FC01319746
:1010F000F1F7AC98AB9A00C0AB980197F1F788E094
:101100000E94E4070E94060886E00E94E407812FFF
:101110000E94E4071F91089578941F920F920FB6D2
:101120000F9211248F939F9380918B0090918C004C
:10113000892B31F481E090E090938C0080938B00B8
:101140009F918F910F900FBE0F901F9018957894DC
:101150001F920F920FB60F9211248F939F9380913D
:10116000890090918A00892B31F481E090E090937E
:101170008A00809389009F918F910F900FBE0F90EE
:101180001F90189578941F920F920FB60F9211240A
:101190008F939F9380911A0290911B0201969093D6
:1011A0001B0280931A02CC9729F18091180290912A
:1011B0001902CC9789F08091870090918800489718
:1011C00021F410928800109287009F918F910F90C8
:1011D0000FBE0F901F9018951092190210921802CE
:1011E0008091870090918800019690938800809369
:1011F0008700E5CF10921B0210921A02809118020C
:101200009091190201969093190280931802D1CF00
:101210008BE392E09093A3028093A20280E2089570
:1012200078941F920F920FB60F9211242F933F9331
:101230004F935F936F937F938F939F93AF93BF93DE
:10124000EF93FF9380911C0290911D020196909361
:101250001D0280931C02039730F00E94A40C109290
:101260001D0210921C02FF91EF91BF91AF919F91CF
:101270008F917F916F915F914F913F912F910F903F
:101280000FBE0F901F90189598E095BF80EA8BBF16
:1012900092BB84E088BB0E94490C8DE00E945508F7
:1012A00080E589BF8BE197EB9BBD8ABDBE9A28EE96
:1012B00033E04CE251E0CA010197F1F72150304090
:1012C000D1F7BE980E949D0C78948CE08EBD86E08C
:1012D00085BD08952F923F924F925F926F927F92B9
:1012E0008F929F92AF92BF92CF92DF92EF92FF9236
:1012F0000F931F93DF93CF93CDB7DEB762970FB6EF
:10130000F894DEBF0FBECDBFDE011196E9EFF0E02D
:1013100080E101900D928150E1F70E9444094F84D1
:1013200058882B853C853A8B298B4BE2242E42E052
:10133000342E3CE2632E31E0732E80E090E00E9478
:10134000130C80E090E00E94830680E090E00E9411
:10135000130C7C0180E090E00E9483065C018DB755
:101360009EB70C970FB6F8949EBF0FBE8DBF8DB67B
:101370009EB60894811C911C2BE332E0EDB7FEB7BA
:101380003283218328E630E0F4013383228300276F
:10139000F7FC0095102FC801B7010E94A41220E0AD
:1013A00030E040E251E40E949811F40164837583B7
:1013B00086839783CC24B7FCC094DC2CC601B5018E
:1013C0000E94A41220E030E040E251E40E94981113
:1013D000F40160877187828793870E9470162DB70A
:1013E0003EB7245F3F4F0FB6F8943EBF0FBE2DBFF0
:1013F00080918B0090918C00892B09F091C02091F5
:101400001402309115028091890090918A00892BF5
:10141000F9F02630310509F4EDC02730310509F423
:10142000DFC02530310549F480918D0090918E0008
:10143000019690938E0080938D008FEF0E940E088E
:1014400010928A00109289002091140230911502A6
:101450002830310509F473C080918D0090918E0081
:101460008E37910520F010928E0010928D008DB76E
:101470009EB708970FB6F8949EBF0FBE8DBFADB74D
:10148000BEB711962BE432E0EDB7FEB7328321836D
:10149000FD0153824282809187009091880095835C
:1014A00084838091180290911902978386830E9409
:1014B0007016A0911402B09115022DB73EB7285FA7
:1014C0003F4F0FB6F8943EBF0FBE2DBFA330B105FE
:1014D00008F43AC0CD010397029708F495C0A530EF
:1014E000B10509F4A0C0169708F06DC08BE492E036
:1014F0006BE272E00E942716BC018BE492E00E942E
:1015000032160E9406088BE492E00E94330820ED18
:1015100037E0C3010197F1F721503040D1F70DCFEB
:1015200020911402309115022F5F3F4F3093150226
:101530002093140210928C0010928B0064CF1092B2
:1015400015021092140288CFFD01EE0FFF1F81E0FB
:1015500090E08C0F9D1FE80FF91F00811181CD01D4
:101560000E94130CEDB7FEB738970FB6F894FEBF84
:101570000FBEEDBFEDB6FEB60894E11CF11C328241
:101580002182F70113830283AA2797FDA095BA2F22
:10159000BC01CD010E94A41220E030E040E251E401
:1015A0000E949811F70164837583868397830E9454
:1015B00070162DB73EB7285F3F4F0FB6F8943EBF69
:1015C0000FBE2DBF93CF8BE2282E82E0382ED101A3
:1015D000ECE7F0E089E001900D928150E1F786CFD1
:1015E00080911802909119020196909319028093AC
:1015F000180223CF809187009091880001969093E4
:1016000088008093870019CFAA0FBB1F81E090E06C
:101610008C0F9D1FA80FB91F0D911C9181E090E0C8
:101620000E9483069FCF00D000D000D0ADB7BEB7D8
:101630001196EDB7FEB73282218229893A89FD01E0
:101640003383228380918D0090918E0095838483D3
:101650000E9470168DB79EB706960FB6F8949EBF7F
:101660000FBE8DBF43CF80B380710895949A8C9A3A
:10167000089594988C98089594988C9A85EA95E0AA
:101680008115910511F00197F1F78FB7F8948C98B7
:10169000E6ECF0E0E115F10511F03197F1F720B338
:1016A0008FBF8EED94E08115910511F00197F1F750
:1016B000849902C081E00895822F807108959FB7B8
:1016C000F8948C9AE2E0F0E0E115F10511F0319721
:1016D000F1F781118C98E9E2F0E0E115F10511F0E4
:1016E0003197F1F7849B80E0E7E8F0E0E115F10540
:1016F00011F03197F1F78C989FBF08950F931F93C6
:10170000182F08E0812F81700E945F0B16958111C0
:1017100010680150B9F7812F1F910F9108958FEF35
:101720000E947E0B0895DF92EF92FF920F931F931A
:10173000CF93DF93D82EEB010E943C0B882359F006
:10174000EE24EA948E2DDF91CF911F910F91FF909F
:10175000EF90DF90089580EF0E947E0B80E4EE24EE
:10176000082F98EFF92EF80E0BC0112399F580E0A1
:101770000E945F0B88818695888301500F15F1F0D8
:1017800081E00E945F0B182F81E00E945F0B88238D
:1017900061F71123C1F40D1528F0888180FFE7CF90
:1017A000D01629F381E00E945F0B8881869588839B
:1017B000E02E8068888301500F1511F7002311F285
:1017C0002196802FCDCF812F0E945F0B8881869537
:1017D0008883EFCF8EEFE82EB5CF0F931F93CF9373
:1017E000DF93082FEB010E943C0B209789F085E5E1
:1017F0000E947E0B18E089910E947E0B1150D9F750
:10180000802F0E947E0BDF91CF911F910F91089541
:101810008CEC0E947E0B802F0E947E0BDF91CF917B
:101820001F910F9108950F931F93DF93CF9300D0D3
:101830000F92CDB7DEB78C0181E060E070E00E94CE
:101840000C0660E673EE86E190E00E94A304000FB0
:10185000111F000F111F000F111F04591D4FF80118
:101860008081BE016F5F7F4FAE014E5F5F4F9E0173
:101870002D5F3F4F0E94560589816A814B810E94EE
:1018800006050F900F900F90CF91DF911F910F9150
:101890000895AF92BF92CF92DF92EF92FF920F9393
:1018A0001F93DF93CF93CDB7DEB729970FB6F89488
:1018B000DEBF0FBECDBF8FEF898300E010E042E0B6
:1018C000C42ED12CCC0EDD1E5E010894A11CB11CCF
:1018D0003AE0E32EF12CEC0EFD1EC501B6010E948C
:1018E000290699819F3FC1F09E3FB1F0F601D801D2
:1018F000AA0FBB1FAA0FBB1FAA0FBB1FA459BD4F26
:1019000081918D93EE15FF05D9F7992329F00F5F8B
:101910001F4F0530110509F729960FB6F894DEBF61
:101920000FBECDBFCF91DF911F910F91FF90EF9030
:10193000DF90CF90BF90AF90089585B7826085BF4C
:101940008BB780648BBF08951F93CF93DF939091E3
:10195000A402935097FD09C02091A1028091A0029A
:101960008D3209F450C01092A4028091090184FFC5
:101970003CC010910A011F3FC1F1193008F470C03A
:10198000185010930A018091940298E88927809357
:10199000940218E02091A2023091A30280911E02CD
:1019A00086FF75C0A5E9B2E080E090E0F901E80F9C
:1019B000F91FE491ED9301961817C1F71150812F8B
:1019C00090E01F5F0196820F931F9093A302809374
:1019D000A20285E992E0612F0E94C60D612F6C5F23
:1019E0006C3009F04EC06093090194E186B38076B3
:1019F00031F49150D9F71092A50210929F02DF9115
:101A0000CF911F910895983009F0ADCFCCE0D0E090
:101A1000C21BD109C855DD4F83EC809394028AE53F
:101A20008093090110921E0288818076C9F59A81FF
:101A300010929D0289818823C1F510929E0222E0B6
:101A40008DE992E09093A3028093A2028F81882374
:101A500021F48E81821708F4282F20930A0183CF66
:101A600010920A018091940298E889278093940249
:101A7000112309F08FCF85E992E060E00E94C60D46
:101A800064E08FEF80930A0160930901AECF912F3C
:101A9000D901E5E9F2E08D9181939150E1F78ECF84
:101AA000CE010E940809282FD1CF853061F0863001
:101AB00081F0883021F1893051F18A3021F120E024
:101AC0008DE992E0BFCF9093A50220E08DE992E0EE
:101AD000B9CF8B81813049F18230F9F0833029F020
:101AE00020E080E480931E02B1CF992331F58CE58C
:101AF00090E09093A3028093A20224E0F2CF21E031
:101B000087EA92E09FCF21E08DE992E09BCF90930E
:101B1000A70220E08DE992E095CF82EA90E09093D1
:101B2000A3028093A20222E1DCCF80E990E09093AF
:101B3000A3028093A20222E1D4CF913051F09230DF
:101B400079F682E890E09093A3028093A2022EE0BF
:101B5000C8CF80E690E09093A3028093A20222E295
:101B6000C0CFA82FB92F80E090E041E050EA609507
:101B70006F5F58F42D9138EF82279795879510F075
:101B8000842795273F5FC8F3F3CF0895EADF8D934D
:101B90009D930895CF93CFB7CF93C395B69BE9F7A5
:101BA000B69B09C0B69B07C0B69B05C0B69B03C0D9
:101BB000B69B01C0A1C0DF93C091A102DD27C8552B
:101BC000DD4FB69B02C0DF91EBCF2F930F931F9396
:101BD00006B32FEF06FB20F94F933F9316B34FEF59
:101BE000012706FB21F93BE031C04E7F012F16B3E0
:101BF000216028C0102F4D7F2260000006B329C04D
:101C00004B7F2460012F000016B32BC016B3477F13
:101C100028602AC04F7E06B320612CC04F7D16B3CA
:101C200020622FC04F7B06B3206432C0422706B328
:101C300049934FEF0000102716FB20F916B31076DA
:101C4000C9F1297F91F2012706FB21F906B3237F11
:101C500089F2315058F1102716FB22F916B3277E6E
:101C600079F2012706FB23F92F7C81F206B31027B6
:101C700016FB24F92F7971F200C016B3012706FB79
:101C800025F92F7359F200C006B3102716FB26F969
:101C9000223040F200C016B3012706FB27F924309A
:101CA00028F64F77206816B30000F9CF10E41ABF6A
:101CB000002717C03B503195C31BD04010E41ABF1A
:101CC0000881033CE9F00B34D9F020919F0219817F
:101CD000110F1213EDCF093641F10D3211F0013E13
:101CE00039F70093A6023F914F911F910F912F91C9
:101CF000DF91CAB7C6FD51CFCF91CFBFCF91189515
:101D00002091A602222379F31091A402112311F548
:101D1000343012F13093A4022093A0021091A1025A
:101D20003BE0311B3093A10217C00091A4020130A7
:101D30008CF40AE53091090134FD10C000930901CB
:101D4000C4E9D2E00FC02795A8F45150A9F4220F9E
:101D50000000F9CF4AE503C042ED01C0432FC4E1C2
:101D6000D0E032E017B31066C69A17BB08B320E480
:101D700010E65F93012756E008BB279520F45150E9
:101D800021F4220FF9CF012756E000003B5A08BB8F
:101D9000D0F2279528F4515029F4220F0000F9CFF2
:101DA000012756E0279508BB20F4515021F4220F5B
:101DB000F9CF012756E02991332308BB21F60F798B
:101DC0001091A502110FC651D04008BB11F010931D
:101DD0009F0210E41ABF006417B31F79402F4F7998
:101DE0005F9100C000C008BB17BB48BB7CCFA0E020
:101DF000B0E0EDEFFEE00C940517DC012B01FA01D9
:101E00009C91923008F436C1EB018881823008F44D
:101E100030C1943061F4843009F02CC1FD0191810E
:101E20008981981709F426C1ABE0B1E023C1843061
:101E300009F41FC18230A9F4923009F01BC19A0144
:101E4000AD0188E0EA010990AE01E90109929E0125
:101E50008150C1F7E2018981ED0199818923818354
:101E600006C1923009F405C1ED012A803B80EB01E7
:101E70008A819B81ED01AC80BD80CE80DF80EB014B
:101E8000EC80FD800E811F819101281B390BB90167
:101E900037FF04C066277727621B730B603271051A
:101EA0000CF061C0121613066CF537014801062EBE
:101EB00004C096948794779467940A94D2F721E0AB
:101EC00030E040E050E004C0220F331F441F551F94
:101ED0006A95D2F721503040404050402E213F219A
:101EE00040235123211531054105510521F021E001
:101EF00030E040E050E079018A01E628F72808291F
:101F000019293CC0232BD1F1260E371E350146017D
:101F1000062E04C096948794779467940A94D2F717
:101F200021E030E040E050E004C0220F331F441FA6
:101F3000551F6A95D2F721503040404050402A2129
:101F40003B214C215D21211531054105510521F031
:101F500021E030E040E050E059016A01A628B728AE
:101F6000C828D9280BC0821593052CF01C01AA247F
:101F7000BB24650103C0EE24FF248701ED01998194
:101F8000E2018981981709F445C0992339F0A80125
:101F900097012A193B094C095D0906C0A601950164
:101FA0002E193F09400B510B57FD08C01182338297
:101FB000228224833583468357831DC081E0818339
:101FC0003382228288279927DC01821B930BA40B82
:101FD000B50B84839583A683B7830DC0220F331F6F
:101FE000441F551F24833583468357838281938101
:101FF0000197938382832481358146815781DA0159
:10200000C9010197A109B1098F5F9F4FAF4FBF432E
:1020100028F30BC0918333822282EA0CFB1C0C1D37
:102020001D1DE482F5820683178383E0808324816B
:1020300035814681578157FF1AC0C901AA2797FDEC
:10204000A095BA2F81709070A070B070569547958A
:1020500037952795822B932BA42BB52B84839583BF
:10206000A683B78382819381019693838283DF0164
:1020700001C0D201CD01CDB7DEB7E2E10C9421174A
:10208000A0E2B0E0E6E4F0E10C94111769837A83F2
:102090008B839C832D833E834F835887E9E0EE2E0C
:1020A000F12CEC0EFD1ECE010196B7010E947A14B0
:1020B0008E010F5E1F4FCE010596B8010E947A1463
:1020C0008A8991E089278A8BC701B801AE01475EF2
:1020D0005F4F0E94F70E0E94A513A096E6E00C94B5
:1020E0002D17A0E2B0E0E7E7F0E10C941117698347
:1020F0007A838B839C832D833E834F835887F9E0BB
:10210000EF2EF12CEC0EFD1ECE010196B7010E94C0
:102110007A148E010F5E1F4FCE010596B8010E9402
:102120007A14C701B801AE01475E5F4F0E94F70EF7
:102130000E94A513A096E6E00C942D17A0E2B0E053
:10214000E4EAF0E10C94051769837A838B839C831E
:102150002D833E834F835887CE010196BE01675F72
:102160007F4F0E947A14CE010596BE016F5E7F4FAD
:102170000E947A149985923088F089898230C8F05B
:10218000943019F4823051F404C0843029F4923030
:1021900081F48BE091E0C6C0923049F420E09A854A
:1021A0008A89981321E02A87CE010996BBC0823024
:1021B00049F420E09A858A89981321E02A8BCE0180
:1021C0004196B0C02D843E844F8458886D887E88A7
:1021D0008F88988CEE24FF248701AA24BB246501F4
:1021E00040E050E060E070E0E0E0F0E0C1018170CC
:1021F0009070892BE9F0E60CF71C081D191D9A0157
:10220000AB012A0D3B1D4C1D5D1D80E090E0A0E060
:10221000B0E0E614F7040805190520F481E090E029
:10222000A0E0B0E0BA01A901480F591F6A1F7B1F47
:10223000AA0CBB1CCC1CDD1C97FE08C081E090E002
:10224000A0E0B0E0A82AB92ACA2ADB2A3196E032F7
:10225000F10549F0660C771C881C991C569447942C
:1022600037942794C3CFFA85EA892B893C898B85DB
:102270009C85280F391F2E5F3F4F17C0CA01817000
:102280009070892B61F016950795F794E79480E09C
:1022900090E0A0E0B0E8E82AF92A0A2B1B2B7695FB
:1022A0006795579547952F5F3F4F77FDE7CF0CC058
:1022B000440F551F661F771F17FD4160EE0CFF1C72
:1022C000001F111F21503040403090E0590790E02E
:1022D000690790E4790760F32B8F3C8FDB01CA011B
:1022E0008F779070A070B07080349105A105B10512
:1022F00061F447FD0AC0E114F1040105110529F05C
:10230000405C5F4F6F4F7F4F40781A8EFE1711F081
:1023100081E08A8F4D8F5E8F6F8F78A383E0898FE6
:10232000CE0149960E94A513A096E2E10C942117D4
:10233000A8E1B0E0EEE9F1E10C940D1769837A832E
:102340008B839C832D833E834F835887B9E0EB2E8C
:10235000F12CEC0EFD1ECE010196B7010E947A14FD
:102360008E010F5E1F4FCE010596B8010E947A14B0
:102370002985223008F47EC03989323010F4B80142
:102380007CC08A859A8989278A87243011F0223077
:1023900031F4231709F06EC06BE071E06EC0343089
:1023A00039F41D861E861F86188A1C861B8604C06B
:1023B000323021F484E08987B7015FC02B853C85EA
:1023C0008B899C89281B390B3C872B87ED84FE84E5
:1023D0000F851889AD88BE88CF88D88CEA14FB0495
:1023E0000C051D0540F4EE0CFF1C001F111F2150B1
:1023F00030403C872B8720E030E040E050E080E038
:1024000090E0A0E0B0E460E070E0EA14FB040C05AA
:102410001D0540F0282B392B4A2B5B2BEA18FB08B3
:102420000C091D09B695A79597958795EE0CFF1C8D
:10243000001F111F6F5F7F4F6F31710531F7DA0198
:10244000C9018F779070A070B07080349105A1059C
:10245000B10561F427FD0AC0E114F104010511057D
:1024600029F0205C3F4F4F4F5F4F20782D873E87EC
:102470004F87588BBE01675F7F4FCB010E94A5132A
:102480006896EAE00C942917A8E1B0E0EAE4F2E1EA
:102490000C94111769837A838B839C832D833E83ED
:1024A0004F83588789E0E82EF12CEC0EFD1ECE01FB
:1024B0000196B7010E947A148E010F5E1F4FCE0164
:1024C0000596B8010E947A148985823040F0898986
:1024D000823028F0C701B8010E94EA1401C08FEFD2
:1024E0006896E6E00C942D17A8E1B0E0EAE7F2E187
:1024F0000C94111769837A838B839C832D833E838D
:102500004F83588789E0E82EF12CEC0EFD1ECE019A
:102510000196B7010E947A148E010F5E1F4FCE0103
:102520000596B8010E947A148985823040F0898925
:10253000823028F0C701B8010E94EA1401C081E08E
:102540006896E6E00C942D17A8E0B0E0EAEAF2E124
:102550000C940E179B01AC0183E08983DA01C90159
:102560008827B7FD83959927AA27BB27B82E211561
:1025700031054105510519F482E089833AC0882369
:10258000A9F0203080E0380780E0480780E858074D
:1025900029F460E070E080E09FEC30C0EE24FF247E
:1025A0008701E21AF30A040B150B02C079018A01B4
:1025B0008EE1C82ED12CDC82CB82ED82FE820F838D
:1025C0001887C801B7010E945613019718161906FB
:1025D00084F4082E04C0EE0CFF1C001F111F0A9487
:1025E000D2F7ED82FE820F831887C81AD90ADC82DF
:1025F000CB82BA82CE0101960E94A5132896E9E00B
:102600000C942A17ACE0B0E0E8E0F3E10C94151765
:1026100069837A838B839C83CE010196BE016B5FB5
:102620007F4F0E947A148D81823061F1823050F1A7
:10263000843021F48E81882351F12EC02F8138857A
:1026400037FD20C06E812F3131051CF06623F9F073
:1026500023C08EE190E0821B930B29853A854B8540
:102660005C8504C056954795379527958A95D2F78E
:102670006623B1F050954095309521953F4F4F4FCF
:102680005F4F0EC020E030E040E050E009C02FEF87
:102690003FEF4FEF5FE704C020E030E040E050E85C
:1026A000B901CA012C96E2E00C943117EF92FF9227
:1026B0000F931F937B018C0180E0E81680E0F80601
:1026C00081E0080780E0180788F48FEFE816F1042E
:1026D0000105110531F028F088E090E0A0E0B0E0BD
:1026E00017C080E090E0A0E0B0E012C080E0E81603
:1026F00080E0F80680E0080781E0180728F088E10C
:1027000090E0A0E0B0E004C080E190E0A0E0B0E0A4
:1027100020E230E040E050E0281B390B4A0B5B0B15
:1027200004C016950795F794E7948A95D2F7F701B8
:10273000ED5EFE4F8081281B310941095109C90115
:102740001F910F91FF90EF900895DF92EF92FF920B
:102750000F931F93FC01E480F58006811781D180DF
:102760008081823048F480E090E0A0E1B0E0E82A87
:10277000F92A0A2B1B2BA5C0843009F49FC0823094
:1027800021F4EE24FF24870105C0E114F1040105C2
:10279000110519F4E0E0F0E096C0628173819FEFCB
:1027A000623879070CF05BC022E83FEF261B370B3D
:1027B0002A3131052CF020E030E040E050E02AC022
:1027C000B801A701022E04C07695679557954795E5
:1027D0000A94D2F781E090E0A0E0B0E004C0880F56
:1027E000991FAA1FBB1F2A95D2F70197A109B1090A
:1027F0008E219F21A023B1230097A105B10521F0CF
:1028000081E090E0A0E0B0E09A01AB01282B392BE9
:102810004A2B5B2BDA01C9018F779070A070B070E2
:1028200080349105A105B10539F427FF09C0205C6A
:102830003F4F4F4F5F4F04C0215C3F4F4F4F5F4FA3
:10284000E0E0F0E02030A0E03A07A0E04A07A0E492
:102850005A0710F0E1E0F0E079018A0127C0603802
:10286000710564F5FB01E158FF4FD801C7018F776F
:102870009070A070B07080349105A105B10539F455
:10288000E7FE0DC080E490E0A0E0B0E004C08FE37C
:1028900090E0A0E0B0E0E80EF91E0A1F1B1F17FF32
:1028A00005C016950795F794E794319687E016953D
:1028B0000795F794E7948A95D1F705C0EE24FF2495
:1028C0008701EFEFF0E06E2F679566276795902FF1
:1028D0009F77D794DD24D7948E2F8695492F462B4A
:1028E000582F5D29B701CA011F910F91FF90EF90FA
:1028F000DF900895FC01DB01408151812281622F2C
:102900006F7770E0221F2227221F9381892F880F63
:10291000822B282F30E0991F9927991FFD01918361
:102920002115310581F5411551056105710511F438
:1029300082E032C082E89FEFFD01938382839A0197
:10294000AB0167E0220F331F441F551F6A95D1F773
:1029500083E08C930AC0220F331F441F551FFD01D3
:10296000828193810197938382832030F0E03F0737
:10297000F0E04F07F0E45F0770F3FD012483358337
:102980004683578308952F3F310581F44115510542
:102990006105710519F484E08C93089564FF03C008
:1029A00081E08C9301C01C92FD010FC02F57304075
:1029B000FD013383228383E08C9387E0440F551F0E
:1029C000661F771F8A95D1F77064448355836683A9
:1029D000778308951F93CF93DF93DC01FB019C91D4
:1029E000923008F444C08081823008F440C09430B2
:1029F00051F4ED011981843081F58181682F70E0F7
:102A0000611B71093CC0843021F0923031F4823076
:102A1000A1F18181882371F12AC0ED0119818230F1
:102A2000E1F081811817C9F4ED012A813B8182818F
:102A30009381821793078CF028173907B4F0ED01C2
:102A40008C819D81AE81BF812481358146815781F2
:102A5000281739074A075B0718F4112341F00AC009
:102A600082179307A407B50740F4112319F061E01A
:102A700070E005C06FEF7FEF02C060E070E0CB0157
:102A8000DF91CF911F910895283008F027E0332778
:102A9000DA01990F311D87FD91600096610571057E
:102AA00039F432602E5F3D9330E32A95E1F70895C3
:102AB0009F3F30F080387105610509F03C5F3C5F55
:102AC0003D93913008F08068911DDF93CF931F9361
:102AD0000F93FF92EF92192F987F9695E92F969575
:102AE0009695E90FFF27E25FFE4F99273327EE24E3
:102AF000FF24A701E70105900894079428F4360FF6
:102B0000E71EF81E491F511D660F771F881F991F6A
:102B10000694A1F70590079428F4E70EF81E491FC4
:102B2000561FC11D770F881F991F661F0694A1F7B6
:102B30000590079428F4F80E491F561FC71FD11D92
:102B4000880F991F661F771F0694A1F705900794B9
:102B500020F4490F561FC71FD81F990F661F771FF4
:102B6000881F0694A9F784911095177041F0D695A7
:102B7000C79557954795F794E7941A95C1F7E4EBF5
:102B8000F0E06894159015913591659195910590B7
:102B90007FE27395E118F10A430B560BC90BD0097C
:102BA000C0F7E10CF11E431F561FC91FD01D7EF454
:102BB000703311F48A95E6CFE894015030F0080F95
:102BC0000AF40027021708F4202F2395022F7A33E6
:102BD00028F079E37D932A95E9F710C07D932A9533
:102BE00089F6069497956795379517951794E11888
:102BF000F10A430B560BC90BD00998F023957E912F
:102C000073957A3308F070E37C932013B8F77E91C4
:102C100070617D9330F0839571E37D9370E32A9525
:102C2000E1F71124EF90FF900F911F91CF91DF9169
:102C3000992787FD90950895FC010590615070409B
:102C40000110D8F7809590958E0F9F1F0895FB0176
:102C5000DC010D900020E9F7119701900D92002002
:102C6000E1F70895FB01DC0101900D920020E1F7EE
:102C70000895FC016150704001900110D8F78095D3
:102C800090958E0F9F1F08950F931F93CF93DF93FF
:102C90008C01EB018B8181FF1BC082FF0DC02E8157
:102CA0003F818C819D812817390764F4E881F9817F
:102CB0000193F983E88306C0E885F985802F09959B
:102CC000892B31F48E819F8101969F838E8302C070
:102CD0000FEF1FEFC801DF91CF911F910F91089562
:102CE000AEE0B0E0E6E7F6E10C9413170D891E891B
:102CF00086E08C831A8309838FEF9FE79E838D8301
:102D00009E01275E3F4FCE0101966F89788DA90104
:102D10000E94F6002F813885020F131FF8011082E0
:102D20002E96E4E00C942F17FA01AA27283051F1CF
:102D3000203181F1E8946F936E7F6E5F7F4F8F4FEC
:102D40009F4FAF4FB1E03ED0B4E03CD0670F781F4B
:102D5000891F9A1FA11D680F791F8A1F911DA11D30
:102D60006A0F711D811D911DA11D20D009F4689469
:102D70003F912AE0269F11243019305D3193DEF611
:102D8000CF010895462F4770405D4193B3E00FD0C7
:102D9000C9F7F6CF462F4F70405D4A3318F0495DB2
:102DA00031FD4052419302D0A9F7EACFB4E0A69595
:102DB0009795879577956795BA95C9F700976105B7
:102DC000710508959B01AC010A2E0694579547950D
:102DD00037952795BA95C9F7620F731F841F951F02
:102DE000A01D089597FB092E07260AD077FD04D071
:102DF00043D006D000201AF4709561957F4F089556
:102E0000F6F7909581959F4F08952F923F924F929C
:102E10005F926F927F928F929F92AF92BF92CF926A
:102E2000DF92EF92FF920F931F93CF93DF93CDB773
:102E3000DEB7CA1BDB0B0FB6F894DEBF0FBECDBFEB
:102E400009942A88398848885F846E847D848C84BC
:102E50009B84AA84B984C884DF80EE80FD800C81C5
:102E60001B81AA81B981CE0FD11D0FB6F894DEBFA8
:102E70000FBECDBFED010895AA1BBB1B51E107C0DA
:102E8000AA1FBB1FA617B70710F0A61BB70B881FFA
:102E9000991F5A95A9F780959095BC01CD01089589
:042EA000F894FFCFD4
:102EA40001030406090B0C0E543A2025322E316618
:102EB400203B20483A2025322E3166005365742089
:102EC40054696D65005B020C000100010019005497
:102ED40020312C20433A2025322E316600542032F2
:102EE4002C20433A2025322E3166005420332C20E6
:102EF400433A2025322E316600466920312C2025A4
:102F0400253A2025322E316600466920322C2025B0
:102F1400253A2025322E3166005365742054313A07
:102F2400202564005365742074696D6500252E3274
:102F3400643A252E3264200A008F009D00AB00B94C
:102F440000C900D900E400ED005AFF0000000000B1
:102F54000000000001020203030303040404040448
:102F64000404040505050505050505050505050510
:102F740005050506060606060606060606060606F0
:102F840006060606060606060606060606060606DD
:102F940006060607070707070707070707070707C0
:102FA40007070707070707070707070707070707AD
:102FB400070707070707070707070707070707079D
:102FC400070707070707070707070707070707078D
:102FD4000707070808080808080808080808080870
:102FE400080808080808080808080808080808085D
:102FF400080808080808080808080808080808084D
:10300400080808080808080808080808080808083C
:10301400080808080808080808080808080808082C
:10302400080808080808080808080808080808081C
:10303400080808080808080808080808080808080C
:1030440008080808080808080808080808080808FC
:043054000808080060
:00000001FF
